S015000041746D6567613332415F4144432E73726563F3
S11300000C942A000C9434000C9434000C943400A6
S11300100C9434000C9434000C9434000C9434008C
S11300200C9434000C9434000C9434000C9434007C
S11300300C9434000C9434000C9434000C9434006C
S11300400C9434000C9434000C9434000C9434005C
S11300500C94340011241FBECFE5D8E0DEBFCDBF21
S11300600E943C000C943F000C9400001ABA80E4F7
S113007087B987E886B908950E943600FFCFF894BF
S1050080FFCFAC
S9030000FC
