:100000000C942A000C943F000C943F000C943F0089
:100010000C943F000C943F000C943F000C943F0064
:100020000C943F000C943F000C943F000C943F0054
:100030000C943F000C943F000C943F000C943F0044
:100040000C943F000C943F000C943F000C943F0034
:100050000C943F0011241FBECFE5D8E0DEBFCDBF1A
:1000600016E0A0E6B0E0E4E7F4E002C005900D92EF
:10007000A036B107D9F70E94E5010C9438020C9420
:1000800000001ABA80E487B987E886B9089597B165
:10009000987F8770892B87B9369A3699FECF84B1BD
:1000A00095B10895A998AA9AAB9AAB9827E030E049
:1000B00090E0AC01022E02C0559547950A94E2F7F4
:1000C00040FF02C0AA9A01C0AA98AB9AAB982150EF
:1000D000310978F7A99A0895A998AA98AB9AAB988C
:1000E00027E030E090E0AC01022E02C05595479524
:1000F0000A94E2F740FF02C0AA9A01C0AA98AB9AFC
:10010000AB982150310978F7A99A089584B38F608C
:1001100084BBAB98A8982FEF80E792E021508040F5
:100120009040E1F700C00000A89AA9988FE99FE0ED
:100130000197F1F700C00000A99A8FE99FE00197AD
:10014000F1F700C000008FE20E946C0080E90E947D
:100150006C0086EA0E946C0084EA0E946C008FEAC0
:100160000E946C0080E40E946C0080EB0E946C0096
:1001700080E10E946C0080E00E946C000895CF93A3
:10018000C82F80EB860F0E946C008C2F8F77829592
:100190008F7080610E946C008C2F8F700E946C00A9
:1001A000CF910895CF93DF9360E080E00E94BF007D
:1001B000D9E007C080E00E945200C150D9F7D15069
:1001C00011F0C1E6F7CFDF91CF910895CF93DF9380
:1001D00060E080E00E94BF00D9E007C08FEF0E947E
:1001E0005200C150D9F7D15011F0C0E6F7CFDF91DE
:1001F000CF9108950F931F93CF93DF93EC018C0160
:100200000A5F1F4F89910E945200C017D107D1F792
:10021000DF91CF911F910F910895CF9360E080E01F
:100220000E94BF00CFE080E00E945200C150D9F789
:1002300082E592E00E94FA0082EB92E00E94FA00CE
:100240008AEF92E00E94FA008CE093E00E94FA00AC
:1002500080E093E00E94FA0086ED92E00E94FA00AE
:100260008AEF92E00E94FA0084EF92E00E94FA0086
:1002700086E192E00E94FA0080E492E00E94FA0097
:1002800080E792E00E94FA0061E080E00E94BF00F7
:10029000CAE080E00E945200C150D9F786EE91E09A
:1002A0000E94FA0088E193E00E94FA008EEE92E04C
:1002B0000E94FA008EEB92E00E94FA008AEC92E033
:1002C0000E94FA0086EA92E00E94FA0082E991E038
:1002D0000E94FA008CE891E00E94FA0086EE91E01C
:1002E0000E94FA0080E291E00E94FA0086EE91E01E
:1002F0000E94FA0088EF91E00E94FA0082EF91E0FC
:100300000E94FA00CF91089563E080E00E94BF0050
:1003100086EE91E00E94FA0086E891E00E94FA00E1
:1003200064E080E00E94BF0086EE91E00E94FA0047
:100330008CE891E00E94FA0065E080E00E94BF0036
:1003400086EE91E00E94FA0082E991E00E94FA00B4
:1003500066E080E00E94BF0086EE91E00E94FA0015
:1003600088E991E00E94FA0063E080E30E94BF0008
:1003700086EE91E00E94FA008EE991E00E94FA0078
:1003800064E080E30E94BF0086EE91E00E94FA00E4
:1003900084EA91E00E94FA0065E080E30E94BF00D9
:1003A00086EE91E00E94FA008AEA91E00E94FA004B
:1003B00066E080E30E94BF0086EE91E00E94FA00B2
:1003C00080EB91E00E94FA0008952FEF80E792E021
:1003D000215080409040E1F700C000000E944100A1
:1003E0002FEF80E792E0215080409040E1F700C07D
:1003F00000000E9486002FEF84E39CE021508040A3
:100400009040E1F700C000000E94E6002FEF89E66F
:1004100098E1215080409040E1F700C000000E9428
:10042000D2000E940D010E948401C0E0D0E62FEFAF
:1004300083ED90E3215080409040E1F700C0000040
:100440008C2F0E9447006C2F63706D5F8C2F8695F8
:100450008695D89FC0011124959587958E5E0E9440
:10046000BF0080E891E00E94FA00CF5FC770DFCF45
:04047000F894FFCF2E
:10047400000000000000006418046418003C4040C0
:10048400207C000C3040300C003C4030403C0000EC
:100494003E1C080000041E1F1E0400103C7C3C107F
:1004A4000020403E010200221408142200003828D3
:1004B4003800000010381000000000100000000890
:1004C40078080000000015150A00007F7F09090163
:1004D4000010207F010100040400011F0000191511
:1004E4001200004060504844000609090600000F4D
:1004F400020101000000011F01000044444A4A5166
:100504000014741C171400514A4A444400000004A7
:10051400040400007C5454440008082A1C08007C8D
:10052400007C447C0004027F02040010207F201021
:100534000000000000000000006F00000000070041
:10054400070000147F147F14000007041E0000231A
:10055400130864620036495620500000000700006A
:1005640000001C224100000041221C000014083E2F
:1005740008140008083E0808000050300000000875
:100584000808080800006060000000201008040249
:10059400003E5149453E0000427F40000042615107
:1005A4004946002141454B31001814127F100027A1
:1005B40045454539003C4A49493000017109050364
:1005C40000364949493600064949291E0000363695
:1005D40000000000563600000008142241000014F8
:1005E40014141414000041221408000201510906D5
:1005F400003E415D494E007E0909097E007F49495C
:100604004936003E41414122007F4141413E007F45
:1006140049494941007F09090901003E4149497A94
:10062400007F0808087F0000417F4100002040410E
:100634003F01007F08142241007F40404040007F7A
:10064400020C027F007F0408107F003E4141413EBE
:10065400007F09090906003E4151215E007F091906
:1006640029460046494949310001017F0101003F03
:100674004040403F000F3040300F003F4030403F8B
:1006840000631408146300070870080700615149E7
:100694004543003C4A49291E00020408102000007A
:1006A400417F000000040201020400404040404039
:1006B400000000030400002054545478007F484490
:1006C400443800384444442000384444487F0038C7
:1006D4005454541800087E090102000C5252523E30
:1006E400007F080404780000447D4000002040445A
:1006F4003D0000007F1028440000417F4000007C42
:1007040004180478007C080404780038444444380D
:10071400007C1414140800081414187C007C0804C9
:10072400040800485454542000043F444020003C32
:100734004040207C001C2040201C003C4030403CB9
:10074400004428102844000C5050503C0044645489
:100754004C440000083641410000007F0000004185
:1007640041360800000402040804007F6B6B6B7FB1
:1007740000007C447C000000087C000000006454FD
:10078400480000004454280000001C1078000000B9
:100794005C542400000078547400000064140C00BD
:1007A40000007C547C0000005C543C00007824264B
:1007B400257800782526247800702A292A70007864
:1007C4002524257800205456557800205556547811
:1007D400002056555678002055545578007C5456C0
:1007E4005544007C55565444007C56555644007C70
:1007F4005554554400385456551800385556541815
:100804000038565556180038555455180000447E83
:1008140045000000457E44000000467D460000007F
:10082400457C45000000487A41000000497A4000B8
:1008340000004A79420000004978410000384446EB
:10084400453800384546443800384645463800386F
:10085400454445380030484A49300030494A483018
:1008640000304A494A30003049484930003C40424F
:10087400413C003C4142403C003C4241423C003C43
:100884004140413C003C4042217C003C4142207CB0
:10089400003842412278003C4140217C004E517195
:1008A400110A005864642410007C0A11227D007827
:1008B40012090A7100000004020100010204000090
:1008C4000000020002000030484540200000007B88
:1008D400000000384444384400403E49493600088A
:1008E4000408700C00605048506000205255593084
:1008F4000038545454000000007F4100004022148A
:100904001860007C20201C2000443C047C440040EF
:100914003C12120C004163554941003844443C04E4
:100924000008043C44240008147F1408004E71019C
:10093400714E004529112945000D5151513D0000CA
:10094400000502050040004000400000081C3E0075
:10095400001C1C1C000000007008070000000808B0
:10096400080000001D15170000000705070000001F
:1009740011150A0000000000000000043C412000A2
:10098400007C16151608002116083442007F091D44
:1009940001030038545414080000007C4040007FD8
:1009A4000E1C387F0041225D221C001C3E1C0800E6
:1009B400007F7F7F7F7F00777B017B77007F43759C
:1009C400437F007F6F55437F0040404040400044D8
:1009D400425F424400405E455E40004048555E40F0
:1009E4000000040810200003070E1C380001030750
:1009F4000F1F007C787060400008081C221C000057
:100A04001C221C0000020008002000043E3F3E049B
:100A140000103E7E3E1000552A552A5500242A7F98
:100A24002A1200041E1F1E04000000000000000023
:100A340000000000000000000000000000000000B2
:100A440000000000000000000000000000000000A2
:100A54000000000000000000000000000000000092
:100A64000000000000000000000000000000000082
:00000001FF
