S015000041746D6567613332415F4144432E73726563F3
S11300000C942A000C943F000C943F000C943F0085
S11300100C943F000C943F000C943F000C943F0060
S11300200C943F000C943F000C943F000C943F0050
S11300300C943F000C943F000C943F000C943F0040
S11300400C943F000C943F000C943F000C943F0030
S11300500C943F0011241FBECFE5D8E0DEBFCDBF16
S113006010E0A0E6B0E0E8E4F6E002C005900D92EE
S1130070AA3EB107D9F70E94C3020C9422030C9440
S113008000001ABA80E487B987E886B9089597B161
S1130090987F8770892B87B9369A3699FECF84B1B9
S11300A095B10895A998AA9AAB9AAB9827E030E045
S11300B090E0AC01022E02C0559547950A94E2F7F0
S11300C040FF02C0AA9A01C0AA98AB9AAB982150EB
S11300D0310978F7A99A0895A998AA98AB9AAB9888
S11300E027E030E090E0AC01022E02C05595479520
S11300F00A94E2F740FF02C0AA9A01C0AA98AB9AF8
S1130100AB982150310978F7A99A089584B38F6088
S113011084BBAB98A8982FEF80E792E021508040F1
S11301209040E1F700C00000A89AA9988FE99FE0E9
S11301300197F1F700C00000A99A8FE99FE00197A9
S1130140F1F700C000008FE20E946C0080E90E9479
S11301506C0086EA0E946C0084EA0E946C008FEABC
S11301600E946C0080E40E946C0080EB0E946C0092
S113017080E10E946C0080E00E946C000895CF939F
S1130180C82F80EB860F0E946C008C2F8F7782958E
S11301908F7080610E946C008C2F8F700E946C00A5
S11301A0CF910895CF93DF9360E080E00E94BF0079
S11301B0D9E007C080E00E945200C150D9F7D15065
S11301C011F0C1E6F7CFDF91CF910895CF93DF937C
S11301D060E080E00E94BF00D9E007C08FEF0E947A
S11301E05200C150D9F7D15011F0C0E6F7CFDF91DA
S11301F0CF9108950F931F93CF93DF93EC018C015C
S11302000A5F1F4F89910E945200C017D107D1F78E
S1130210DF91CF911F910F910895CF9360E080E01B
S11302200E94BF00CFE080E00E945200C150D9F785
S113023082EA90E00E94FA008EED90E00E94FA00BB
S113024084EB90E00E94FA0088EA90E00E94FA00B1
S11302508EEA90E00E94FA0086EC90E00E94FA0098
S113026084EB90E00E94FA008AEB90E00E94FA008E
S113027086EC90E00E94FA008EEA90E00E94FA0078
S113028086E990E00E94FA0061E080E00E94BF00ED
S1130290CAE080E00E945200C150D9F784EE90E099
S11302A00E94FA008CE990E00E94FA0080EC90E051
S11302B00E94FA0082ED90E00E94FA008CEC90E03B
S11302C00E94FA0084EE90E00E94FA008EE790E02B
S11302D00E94FA0084E890E00E94FA0084EE90E024
S11302E00E94FA0080E00E94520080E00E945200C6
S11302F080E00E94520080E00E94520080E00E9450
S1130300520080E00E94520084EE90E00E94FA00C5
S113031088ED90E00E94FA008EED90E00E94FA00D1
S1130320CF91089563E080E00E94BF0084EE90E0E6
S11303300E94FA008AE890E00E94FA0080E00E949D
S1130340520080E00E94520080E00E94520080E04F
S11303500E94520080E00E94520080E00E945200FD
S11303608AEB90E00E94FA0084EE90E00E94FA008A
S113037064E080E00E94BF0084EE90E00E94FA00F6
S113038084E890E00E94FA0080E00E94520080E03D
S11303900E94520080E00E94520080E00E945200BD
S11303A080E00E94520080E00E9452008AEB90E0BC
S11303B00E94FA0084EE90E00E94FA0065E080E07A
S11303C00E94BF0084EE90E00E94FA008EE790E065
S11303D00E94FA0080E00E94520080E00E945200D5
S11303E080E00E94520080E00E94520080E00E945F
S11303F0520080E00E9452008AEB90E00E94FA00D2
S113040084EE90E00E94FA0066E080E00E94BF0063
S113041084EE90E00E94FA0088E790E00E94FA00DF
S113042080E00E94520080E00E94520080E00E941E
S1130430520080E00E94520080E00E94520080E05E
S11304400E9452008AEB90E00E94FA0084EE90E051
S11304500E94FA0063E080E30E94BF0084EE90E013
S11304600E94FA0082E790E00E94FA0080E00E9475
S1130470520080E00E94520080E00E94520080E01E
S11304800E94520080E00E94520080E00E945200CC
S11304908AEB90E00E94FA0084EE90E00E94FA0059
S11304A064E080E30E94BF0084EE90E00E94FA00C2
S11304B08CE690E00E94FA0080E00E94520080E006
S11304C00E94520080E00E94520080E00E9452008C
S11304D080E00E94520080E00E9452008AEB90E08B
S11304E00E94FA0084EE90E00E94FA0065E080E346
S11304F00E94BF0084EE90E00E94FA0086E690E03D
S11305000E94FA0080E00E94520080E00E945200A3
S113051080E00E94520080E00E94520080E00E942D
S1130520520080E00E9452008AEB90E00E94FA00A0
S113053084EE90E00E94FA0066E080E30E94BF002F
S113054084EE90E00E94FA0080E690E00E94FA00B7
S113055080E00E94520080E00E94520080E00E94ED
S1130560520080E00E94520080E00E94520080E02D
S11305700E9452008AEB90E00E94FA0084EE90E020
S11305800E94FA0008952FEF80E792E02150804006
S11305909040E1F700C000000E9441002FEF80E787
S11305A092E0215080409040E1F700C000000E949A
S11305B086002FEF84E39CE0215080409040E1F7D7
S11305C000C000000E94E6002FEF89E698E1215068
S11305D080409040E1F700C000000E94D2000E94D9
S11305E00D010E949201C0E0D0E62FEF83ED90E36D
S11305F0215080409040E1F700C000008C2F0E9401
S113060047006C2F63706D5F8C2F86958695D89FFD
S1130610C0011124959587958E5E0E94BF0080E9E4
S113062090E00E94FA0080E990E00E94FA0080E9DC
S113063090E00E94FA0080E990E00E94FA00CF5F07
S10B0640C770D3CFF894FFCF7B
S11306486C9292926C0002E2120A060078949292DA
S113065860004E8A8A8A7200302824FE2000428272
S11306688A96620084C2A2928C000084FE800000F4
S11306787CA2928A7C00C6281028C6000202FE02C8
S113068802008C9292926200FE1232528C00FE1288
S113069812120C007C8282827C00FE081020FE006C
S11306A8FE041804FE000082FE8200007C8282A2FE
S11306B86400FE9292928200FE8282827C007C8296
S10D06C882824400FC222222FC007E
S9030000FC
